:020000040000fa
:080000000002040000000000f2
:020000040000fa
:10000800a6040100a6040100a6040100a60401003c
:10001800a6040100a6040100a6040100a60401002c
:10002800a6040100a6040100a6040100ea030100d9
:10003800a6040100a6040100a6040100f0f80000cf
:10004800a6040100a6040100a6040100a6040100fc
:10005800a6040100a6040100a6040100a6040100ec
:10006800a6040100a6040100a6040100a6040100dc
:10007800a6040100a6040100a6040100a6040100cc
:10008800a6040100a6040100a60401006004010002
:10009800c2f90000a6040100a6040100a60401009c
:1000a800a6040100a6040100a6040100a60401009c
:1000b800a6040100a6040100a6040100a60401008c
:1000c800a6040100a6040100a6040100a60401007c
:1000d800a6040100a6040100a6040100a60401006c
:1000e800a6040100a6040100a6040100a60401005c
:1000f800a6040100a6040100a6040100a60401004c
:10010800a6040100a6040100a6040100a60401003b
:10011800a6040100a6040100a6040100a60401002b
:10012800a6040100a6040100a6040100a60401001b
:10013800a6040100a6040100a6040100a60401000b
:10014800a6040100a6040100a6040100a6040100fb
:10015800a6040100a6040100a6040100a6040100eb
:10016800a6040100a6040100a6040100a6040100db
:10017800a6040100a6040100a6040100a6040100cb
:10018800a6040100a6040100a6040100a6040100bb
:10019800a6040100a6040100a6040100a6040100ab
:1001a800a6040100a6040100a6040100a60401009b
:1001b800a6040100a6040100a6040100a60401008b
:1001c800a6040100a6040100a6040100a60401007b
:1001d800a6040100a6040100a6040100a60401006b
:1001e800a6040100a6040100a6040100a60401005b
:0801f800a6040100a6040100a9
:020000040000fa
:10020800a6040100a6040100a6040100a60401003a
:10021800a6040100a6040100a6040100a60401002a
:10022800a6040100a6040100a6040100ea030100d7
:10023800a6040100a6040100a6040100f0f80000cd
:10024800a6040100a6040100a6040100a6040100fa
:10025800a6040100a6040100a6040100a6040100ea
:10026800a6040100a6040100a6040100a6040100da
:10027800a6040100a6040100a6040100a6040100ca
:10028800a6040100a6040100a60401006004010000
:10029800c2f90000a6040100a6040100a60401009a
:1002a800a6040100a6040100a6040100a60401009a
:1002b800a6040100a6040100a6040100a60401008a
:1002c800a6040100a6040100a6040100a60401007a
:1002d800a6040100a6040100a6040100a60401006a
:1002e800a6040100a6040100a6040100a60401005a
:1002f800a6040100a6040100a6040100a60401004a
:10030800a6040100a6040100a6040100a604010039
:10031800a6040100a6040100a6040100a604010029
:10032800a6040100a6040100a6040100a604010019
:10033800a6040100a6040100a6040100a604010009
:10034800a6040100a6040100a6040100a6040100f9
:10035800a6040100a6040100a6040100a6040100e9
:10036800a6040100a6040100a6040100a6040100d9
:10037800a6040100a6040100a6040100a6040100c9
:10038800a6040100a6040100a6040100a6040100b9
:10039800a6040100a6040100a6040100a6040100a9
:1003a800a6040100a6040100a6040100a604010099
:1003b800a6040100a6040100a6040100a604010089
:1003c800a6040100a6040100a6040100a604010079
:1003d800a6040100a6040100a6040100a604010069
:1003e800a6040100a6040100a6040100a604010059
:0803f800a6040100a6040100a7
:020000040000fa
:10040000cfea20000e7f22000e01880000000000cd
:10041000000020000000e000020032000001200087
:10042000200288000c000700a0be2f000100200061
:1004300011000700000020000000e0000200320070
:100440000000020000000000caff020000000000df
:100450000040da000000fe004440a900007e2000b9
:100460000000e0000300320000002000a00188002e
:100470004440a80000000600910188008000780038
:100480000000eb0015003700e280400032a0b4000d
:100490009101ba00e280400032a0b4009102ba009b
:1004a000e280400032a0b4000002eb00472bde00e7
:1004b000f507b200602ce10004003a000059eb009f
:1004c0008301e900fdff3e00040037006128e100e0
:1004d000010032000082eb00040007001101ba00a5
:1004e0000200e000e8ff3a00000006003159ba00bf
:1004f0008301e9000c0032002159ba008301e900b0
:10050000080032000400e00003003a00e2804000ee
:1005100032a0b400f5ff370011d9ba008301e90019
:10052000faff3a008100e800e180400032a0b40008
:10053000000006000a00fa00e20f500022003e0010
:1005400044558000e10f520006003200872320004e
:10055000462320002423200005232000e08f5300a1
:1005600004003a0087222000462220002422200096
:1005700005222000000028001500600003003a005a
:10058000800b780007002800958a73000540200042
:100590009482620001003a0014a0a0008202780058
:1005a00006003700940378000710b200fdff320008
:1005b000b103fb00070b78008502e900e08f5200d1
:1005c000f8ff3a000800370034002000c0bf9f0049
:1005d000e2bf9f00b4bf9f00d1bf9f006a80570059
:1005e000430507006fb99700020078000080fa0009
:1005f00000000600889fbe008004780050558000ef
:10060000e00f500004003a000e0007000084eb00e9
:10061000e00f50000800350058558000e08f54006e
:10062000050032000900440006000700e00f5000fa
:1006300001003d000084eb00080078004f04be007c
:1006400000000600e00f500004003a00c4aa200099
:100650005455880000027800060037000082eb0045
:10066000c5ea2000850f500002003e00505588006a
:100670000002eb000400780000000600839f680081
:100680000100e00002003d0060001000e080180062
:100690000300e00002003d0060011100e08119004c
:1006a000050007004f00e00002003b006000100062
:1006b000e0801800000006006022b800060220005a
:1006c0000000d0008180d2000482d2008582d20056
:1006d0000000a0000202520083825a000300310091
:1006e0000202420083824a000000a1000603e900e2
:1006f000f3ff3a0000000600a4a72000e4874700ab
:10070000d5538000889fbe008a9fbe008c9fbe008c
:100710008e1f7800e08f52000b003a0024029800f0
:10072000e4024200e4548800d5538800f554880060
:10073000a44290000504a00025429800e4429000e5
:100740000504a0006542980067044000c4aa200088
:10075000250020004244de00c9ea20004244dd00ba
:100760008484540005074400110009008504d80062
:10077000fcea2000e25480000406560080bf9f007f
:100780000e0747000003eb00e4054400080646009e
:1007900002003700160020000d0178002242900070
:1007a00061026200020032000a0037001509780079
:1007b000920278002542900061026200fbff320045
:1007c00008024100848f520002003900e00f5400fb
:1007d0003f003d00920678000d00a100828f560078
:1007e000edff3e00e10f5300eaff3a000fba970019
:1007f000840f540002003600890f540010003900a5
:10080000614ab900b0ff2f00010020006143b80029
:100810000402500085825800840f5300858f5b00ce
:10082000020035000b0578000600370011000900b2
:100830000986d8000982b900040578000100370054
:100840000e0578000a0078006aff0700e10f4000fb
:1008500005003a000b0578000b00780065ff0700e3
:10086000e10f40002b003200f4548000000a7800b1
:10087000f454800064034200a4429000860f5000ac
:10088000020032000504a000010037000504a100a9
:100890002542980064055500a4a720000a054000e1
:1008a0000a087800fa548800040d7800f554800096
:1008b0000003eb00254290000404a000a44298002d
:1008c000204290000404a10024409800b2ff3700a9
:1008d000e4548800848f5200070036001403be00e1
:1008e0008042eb0096548800a7548800120a7800d2
:1008f000e45480002542980022429000e754800092
:100900000404a00007097800244198006400410015
:10091000010037000000eb004f0778004f06be00d3
:100920004f05be004f04be004f00b100000006009e
:10093000e00f50000800320064005000e4548000d2
:10094000840f500001003100e054880020429000e4
:100950000404a1002440980000000600889fbe0007
:10096000000478008a9fbe0081047800e08f540064
:1009700005003a00e00f5400320032000800780011
:10098000ebff070030003700e00f540004003a008e
:100990000900780058ff0700800478002a0037001b
:1009a000640254009405780068fa970061026200be
:1009b0000200320008007800ddff0700090078001f
:1009c0004dff070080047800e08f54001e003200c5
:1009d000888f54001b00320069bd97008885550040
:1009e00009055500c2ddde0042d5de000a017800af
:1009f0008b0f5500010036000b0178004211dd001d
:100a0000880078000900780013000700888f5400e0
:100a10000d0031004255dd000a854400880f550065
:100a2000090036000804550094548000a554800045
:100a300042c4de004244dd0008844400048cbe0051
:100a40000100370088047800090078004f05be00d7
:100a50004f04be00000006000002780002003700cc
:100a6000315a78000201e900e00f5100fcff3a0022
:100a7000000006000002780002003700015a7800ea
:100a80000201e900e00f5100fcff3a0000000600ff
:100a90000c00fa00889fbe00f4ff270000047800d5
:100aa000d4bf9f008004eb0088bf9f0099bf9f00c8
:100ab000a8bf9f00240c200078815700b4bf9f007e
:100ac000cfb0970070805700070007000fba97005b
:100ad000094a78000fba9700080052004f04be0080
:100ae0000080fa0000000600ef03b000889fbe00ff
:100af0008a9fbe008c9fbe00800678008e1f780003
:100b00000007eb00d1af9f00a2b79f00660337003c
:100b1000dfa8970054c2b3008100e800d1af9f0066
:100b2000844f500006003a00010278000006eb00f6
:100b300001c3b30000c2b300b7c2b3000e00370058
:100b40003d0290000404b200040032001d0278004f
:100b5000004a7800840ee800050037000000fb0022
:100b60008d0078005c030700e10f40004e03320067
:100b70000e07e8004c03370084027800d2c2b300ad
:100b800034437800824f53000900320005003c00d6
:100b9000804f530008003200874f53000c003a008a
:100ba00007003700814f530009003a000600370064
:100bb0000c30a000f0ff37000c00a000eeff370063
:100bc0000c10a000ecff37000c20a000eaff37005b
:100bd00062026600010032000c00a100680266009b
:100be000010032000c20a1000602fb000403b1004a
:100bf000e90f52000c003e00050378000002eb00f4
:100c0000b603fb006a22b9000703b1008602780030
:100c1000048243009603fb000703b100e98f5300f1
:100c2000f7ff3600080037000002eb00a7c2b30050
:100c3000874f530004003a00afb197008502e800e7
:100c400043027800a3b79f000003eb0096b79f0014
:100c5000e6c2b300954f13000c003a000ce0a00070
:100c600064435300d54f130003003200050378009e
:100c70000000eb0009003700afb397008502e800e1
:100c800047047800a7b79f0098b79f000503780036
:100c9000090037006a00b90000804300860278002e
:100ca000b603fb000703b100e98f5300f9ff3600dc
:100cb00090b79f00f5ff3700b6427800cac6b30070
:100cc000d6af9f008acf5200250032000f003c00b3
:100cd00036c6b30086cf52009e00320004003c00ae
:100ce000e0cf5200f50232006b4353000f00370093
:100cf00046c6b30086cf520017003200654343005a
:100d000086cf5200b2003a001300370036c7b30056
:100d100086cf52001f00320007003c00644353009e
:100d200086cf5200140032000643e80086cf5200fe
:100d3000a7003a001300370056c7b30086cf520011
:100d4000aa0032006343430086cf5200a0003a005d
:100d5000e5779f000d003700e5779f00a50037007d
:100d6000f0036600050120000100320005002800a4
:100d70000c867200d0ff3700e5779f000c60a00062
:100d80009c003700e5779f000c50a0000c70a0007d
:100d900098003700afb59700e5779f00cb02780049
:100da000abb79f00b5b79f00e08f520002003a003a
:100db000e19d2000b1b79f003fb397008002eb0098
:100dc000010037008502e800e6c37a00e0cf530057
:100dd000fcff3a00c5b79f001fb19700e00f51001c
:100de00005003200cfb19700830f5100020031009f
:100df00082027800c5b79f00cfb297000004eb00d5
:100e0000850f520001003600050452006806660096
:100e100009c2b3000f003200290037003d029000e4
:100e20000404b200040032001d027800094a780070
:100e3000840ee800050037008d00780000022000d5
:100e4000a5020700e10f4000010032000e07e80094
:100e50000804e900e00f5400f0ff3a000084eb00c2
:100e600017003700bd0290000504b20009003200ef
:100e7000880278009d03780035437800864b78001f
:100e800005047800870ee800e04f53000a003a009e
:100e900011003700880278008d0078003500fb00d3
:100ea00084bf9f00050478008b0207000fba9700eb
:100eb000e10f4000080032000e07e800060037008e
:100ec0000c027800080678003fb49700cfb4970072
:100ed0005fb59700efb59700890278008504e900b7
:100ee000e08f5200dfff3a00b8b79f00c9b79f00fc
:100ef000dab79f00ebb79f000c04780009c2b3007b
:100f000004067800e00f56000f003a006602370032
:100f10003d0290000404b200040032001d0278007b
:100f2000094a7800840ee800050037008d0078003b
:100f30000002200068020700e10f400001003200bb
:100f40000e07e8000804e900e00f5400f0ff3a0043
:100f500055023700afb09700700366004104780077
:100f6000a1b79f00cfc4de00090578008a0578008c
:100f70000800be000a01be004800de00c80add000d
:100f800000807200e0779f00e00f530009003200fc
:100f9000e04f500007003200e14f400005003200f2
:100fa00026002000f0779f00887f9f00c6b79f0033
:100fb0000300370017002000c7b79f00f8779f0095
:100fc00078fb2f0008844700b8b79f0082ff3700e6
:100fd00069fb2f001a00200089844700e5779f00f5
:100fe000b9b79f00cab79f007bff3700e5779f0026
:100ff0000c0cb3008c027800050cb2003b003a00e8
:10100000e00f560005003d00afb297004501be005d
:101010004500be00a5b79f000f003700f002660034
:10102000120032002fb497004803be00f69f9f00c5
:1010300087a79f00a8b79f0098029000cfaade0064
:1010400095a79f00a5a79f007f9897008fa0970066
:101050001fa19700afa19700b0b79f00c1b79f0035
:10106000d2b79f00e3b79f000b003700afb09700e7
:10107000c102780005047800cfc4de0009057800bd
:101080008a057800a1b79f00b8b79f00c9b79f0035
:10109000dab79f00ebb79f003fb09700cfb0970043
:1010a0005fb19700efb19700e00f5000e08f58005c
:1010b000e00f5900e08f590032003d006000b80099
:1010c0006011b8003fb49700cfb497005fb59700a8
:1010d000efb597003c00b300080450008984580025
:1010e0000a0559008b85590022003700e00f560091
:1010f00005003d00afb297004501be004500be00af
:10110000a5b79f000f003700f00266001200320002
:101110002fb497008004eb004803be000005eb00ed
:1011200096af9f00a7af9f00b9af9f00caaf9f00c7
:101130001fa89700afa897003fa99700cfa99700d5
:10114000a8b79f00b0b79f00c1b79f00d2b79f005c
:10115000e3b79f000b003700afb09700c1027800e3
:10116000a1b79f0005047800090020000a002000b4
:101170000b002000b8b79f00c9b79f00dab79f00e7
:10118000ebb79f009fb49700e08f54000d003a002a
:101190001a0020003fb09700cfb097005fb19700d2
:1011a000efb197009ab79f00e00f5000e08f580012
:1011b000e00f5900e08f5900020032008000eb0080
:1011c00091b79f000c01780005042000020cb200ca
:1011d00082b79f00850f51003400320003003c00ad
:1011e000e00f5100080032004800370005082000d9
:1011f0008fb19700858f510014003200050c20003c
:10120000858f510041003a00468e200015c0b30082
:101210003600be003601be003fb49700cfb4970041
:101220005fb59700efb597000040e10001c8e1000d
:1012300002d0e10003d8e100330039008542e80024
:10124000f4cf5200f2ff3a002f00370015c0b30070
:1012500000012000010020006011b8003fb4970099
:10126000cfb497005fb59700efb597000040e1005d
:1012700001c8e10002d0e10003d8e10022003900fa
:10128000490020000000d0008180d2000281d200fd
:101290008381d2008904e900faff3a008542e80020
:1012a000f0cf5200edff3a001700370015c0b30031
:1012b00080002000010020006011b8003fb49700ba
:1012c000cfb497005fb59700efb597000040e100fd
:1012d00001c8e10002d0e10003d8e1000a003900b2
:1012e000390020000000d0008180d2000281d200ad
:1012f0008381d2008904e900faff3a008542e800c0
:10130000f5cf5200edff3a00e5779f006f7597002b
:101310009fb597008a02fb008b8f520002003d00b0
:10132000eb779f00040037001fb09700850f500037
:1013300001003d0095b79f00e00f5200030032000e
:10134000e3026600010032000402e9000500240007
:1013500085026600060032009fb09700810f5200a0
:101360000200340001025200010037000002eb00cd
:101370006f7197008001eb008202fb00f3af9f00ca
:10138000850f52000200340085025200f5af9f0025
:10139000640266003b003200e20266006102660001
:1013a000e08f520011003200bd0290000504b2002f
:1013b000080032009d027800b6c2b300e00f520070
:1013c0000100320006c3e800864a7800850ee80076
:1013d00015003700b0022000e00f5200010032007b
:1013e0000080e8008d0078000c003700e00f52000c
:1013f0000e0032003d0290000404b20005003200ed
:101400001d02780005c2b300054a7800840ee8008a
:10141000050037008d007800000220002e01070033
:10142000e10f4000010032000e07e8007faa97009c
:10143000e00f52004f00320008c3b300840478006c
:101440003d0290000404b200040032001d02780046
:10145000084a7800840ee800050037008d00780007
:10146000000320001c010700e10f400001003200d2
:101470000e07e8008904e900f1ff3a00f9af9f0088
:101480003c003700ffaa9700e08f520014003200a2
:101490006802660012003a0008c2b30085047800b2
:1014a0003d0290000404b200040032001d027800e6
:1014b000084a7800840ee800050037008d007800a7
:1014c0000002200004010700e10f4000010032008b
:1014d0000e07e8008904e900f1ff3a00f9af9f0028
:1014e000e202660061026600e08f520011003200e5
:1014f000bd0290000504b200080032009d02780091
:10150000b6c2b300e00f52000100320006c3e8008b
:10151000864a7800850ee80015003700b0022000ea
:10152000e00f5200010032000080e8008d007800da
:101530000c003700e00f52000e0032003d02900018
:101540000404b200050032001d02780005c2b30099
:10155000054a7800840ee800050037008d00780009
:1015600000022000dc000700e10f40000100320013
:101570000e07e8001fb39700c58d20000602e900a2
:10158000f0046600c223dd000c057800c7a79f00a9
:101590000a02b2006323b900e99f9f0006047800a5
:1015a0004322dd00b8a79f0085024200da9f9f001a
:1015b000e5af9f00a30037009fb597000fb09700dd
:1015c0008b05e900010420009bb79f00810f5000ac
:1015d0007300320003003c00e00f500008003200ae
:1015e0007e003700040820000fb19700840f5100df
:1015f00056003200040c2000840f510077003a009e
:10160000e00f56001f003d00efa997003304be0015
:101610002305be003fb09700cfb097005fb19700a1
:10162000efb197000802be000a03be00e301070005
:101630000802be000a03be00e0779f000000fb0026
:10164000cf80de00010178008201780044020700ab
:101650003fb29700cfb297005fb39700efb3970008
:101660000002520081825a0002035b0083835b0008
:10167000b4b79f00c5b79f00d6b79f00e7b79f00dc
:101680002e003700ef9a9700e08f520022003200c0
:101690006fab97003fb29700cfb297003604be0001
:1016a0002605be000400be000801be0084bf9f00e6
:1016b000f5b79f000005eb00fffb07000801be0027
:1016c000e0779f000000fb00cf80de000a010700ea
:1016d0000fba9700ffb297008aaf9f000004520034
:1016e00081845a00d8a79f00e9a79f008004eb00df
:1016f000f9a79f005fa09700efa097007fa1970038
:101700008fa99700b0b79f00c1b79f00d2b79f00c5
:10171000e3b79f0009003700efa897003fb197009b
:1017200011027800110009000481d800a4002000f3
:10173000110009000480d800e1779f00ef71970045
:101740000343b000e3779f0024003700d49c2000bf
:10175000df9a9700e08f520001003200c49b200006
:101760003fb09700cfb097005fb19700efb19700ff
:101770004fa397000603e900050033008301d10061
:101780000281d3008180d3000080d300f9ff3700ad
:101790006f00600064407800e0779f000f00370022
:1017a0003fb29700cfb297005fb39700efb39700b7
:1017b0003fa497000804e900050033008703d10027
:1017c0000683d3008582d3000482d300f9ff37005b
:1017d000674262000443b000e4779f003d0290003e
:1017e0000404b200070032009d0278006f72970077
:1017f000844a7800850ee800e04f520007003a0066
:1018000007003700ef7497008d0078000900fb0097
:1018100031000700e10f4000010032000e07e80030
:101820004fa59700bfa597006fa8970064055500c6
:10183000e385550068005000caa79f00bba79f0022
:10184000e0af9f009fb09700e08f50005aff3a0032
:1018500068066600140032007fa99700e00f51006f
:101860001100340008c2b300820478003d029000e9
:101870000404b200040032001d027800084a780017
:10188000840ee800050037008d007800000220007b
:1018900011000700e10f4000010032000e07e800d0
:1018a0008904e900f1ff3a00dfa9970013407800ae
:1018b000e0779f00e04f500095fc3a000e00780062
:1018c0004f0778004f06be004f05be004f04be0014
:1018d000ef03b10000000600889fbe0001047800fd
:1018e0008084eb0038029000e20262003b0032008c
:1018f00004037800980290000620b20002003a002b
:10190000e08f520035003a000490a0008004780077
:1019100034049800f90fb200e08f520002003a0040
:10192000a8029000050c7800ea8f540005003a00e8
:101930000408b20003003a0088007800d0002000bc
:10194000e5ff070018029000d8029000850f5200b2
:101950000b0032000402e80015c0b3001404980024
:1019600018027800094a7800040ce80024aa200034
:10197000054a7800ea8f540018003a000500370045
:10198000094078008800780017000700800478007c
:1019900012003700380290000410b2000f0032002d
:1019a00018019000a800900048009000e1fa07009c
:1019b00018029000840f500004003200380290009a
:1019c0000403b300340498008084eb000002eb00b1
:1019d0001404980028029000040c78000900780094
:1019e0004f04be00000006000200fa00889fbe00ff
:1019f00001047800a0ff9f00380290008402780064
:101a00000504b200020032000000fb003500370080
:101a1000e202620005003a000403b30015049800d6
:101a2000340498000080eb002e003700d8049000aa
:101a3000e08f540006003a0012002000e6805700b4
:101a400048009000bbfa07001904980023003700f3
:101a5000a8029000e08f520008003a0065aa20001a
:101a60000430a00025049800050c78003404980088
:101a700025002000550498001504980018019000d6
:101a8000a800900048009000aafa070028029000e1
:101a90008082eb0015049800affa9700054a7800a1
:101aa000040ce8002ffa9700ea4f52000b003a00ae
:101ab000380290000410b2000800320018019000b3
:101ac000a8009000480090009afa07000002eb007e
:101ad000a802900014049800050c78002ffa9700d3
:101ae0000400fb004f04be000080fa000000060066
:101af00000c0da0000000600020ab900001bb900ad
:101b00000200b8008100420081004300000006008e
:101b1000889fbe008a9fbe003004be002005be0024
:101b20000404440085844c0006054d0087854d0063
:101b30000898be000a90be000440e10005c8e1001c
:101b400006d0e10007d8e100020031006800400043
:101b50001008e8004f05be004f04be00000006005c
:101b60001000fa00889fbe008a9fbe00110020006e
:101b70000605be000404be003002be002003be0005
:101b8000c4b79f00d5b79f00e6b79f00f7b79f0087
:101b90000802520089825a000a035b008b835b00b3
:101ba00084bf9f0095bf9f00a6bf9f00b7bf9f0047
:101bb0000498be000698be004fb29700dfb29700af
:101bc0006fb39700ffb397000820e10009a8e10078
:101bd0000ab0e1000bb8e100010039008000eb0021
:101be0004f05be00108810004f04be000080fa00b0
:101bf000000006001400fa00889fbe008a9fbe0005
:101c00008c9fbe000006eb003e000700ccb79f0093
:101c1000bcb79f00acb79f009cb79f008cb79f00dc
:101c20000605be000404be000d0420004fb397005b
:101c3000bfb29700860343002fb29700e00f530016
:101c400004003d003d0007000f004000b0ff07000a
:101c500003003700390007000f004000c0ff0700f5
:101c6000cfb2970095bf9f00e08f5200090035006a
:101c70002b00070014002000050020006033b8008e
:101c80000000720081807200020173008381730082
:101c90001c0007000c06e8008d0f5600e3ff3a0019
:101ca0001fba9700e00f520005003d000802be0079
:101cb0000a03be0000fe2f000f00400094ff070043
:101cc0004faa9700e00f520008003a000fb49700a7
:101cd0009fb497002fb59700bfb59700d8b79f0066
:101ce000e9b79f00fab79f008bbf9f000c00070069
:101cf0004f06be004f05be004f04be000080fa0034
:101d000000000600010007000000060090b79f00d9
:101d1000a1b79f00b2b79f00c3b79f0000000600a5
:101d200001000700000006001fb09700afb0970049
:101d30003fb19700cfb19700000006004f2bde00a7
:101d4000f9ff070086837300858242004f23de007f
:101d5000a7b79f00868272000402420095b79f00d9
:101d6000ffaa97004f2bde00858242000602720018
:101d700084b79f006faa97004f23de000402420041
:101d800086827200f5af9f004f18de0000027200dd
:101d9000e5ff0700e4af9f0000004000818048009d
:101da00002014900838149000802be000a03be0007
:101db000d6ff070000fe2f0000000600881f7800f5
:101dc00018002000881f78008aff07008f87e9002d
:101dd0004f04780000000600801feb0085ff07001d
:101de0008f87e90000000600889fbe008a9fbe0022
:101df000e00f5000e08f5800e00f5900e08f5900cd
:101e00000c003d006044b8006055b800000054006c
:101e100081805c0002015d0083815d00180020006c
:101e20001500070008003d00180007000004eb0043
:101e3000050037000004eb000f00070002003d0022
:101e40001200070018002000dcff0700e00f54001c
:101e5000060032006022b8006033b8000000520073
:101e600081805a0002015b0083815b004f05be0048
:101e70004f04be0000000600e00f5200e08f5a0041
:101e8000e00f5b00e08f5b00000006006044b800dc
:101e90006055b8000402540085825c0006035d00b2
:101ea00087835d0000000600889fbe008a9fbe00f9
:101eb0008c1f7800e00f5000e08f5800e00f5900b1
:101ec000e08f59000d003d006044b8006055b80037
:101ed0001c0020000000540081805c0002015d00b5
:101ee00083815d000820e10009a8e1000ab0e1005b
:101ef0000bb8e1000d003d00080037000006eb00c4
:101f0000e00f5200e08f5a00e00f5b00e08f5b00b3
:101f100006003d006044b8006055b800040254005b
:101f200085825c0006035d0087835d00aaff0700d1
:101f3000e00f5600060032006022b8006033b8009f
:101f40000000520081805a0002015b0083815b0027
:101f50004f0678004f05be004f04be00000006008b
:101f6000889fbe008a9fbe008c1f78000006eb0091
:101f7000e00f5000e08f5800e00f5900e08f59004b
:101f800007003d006044b8006055b8001c00200008
:101f90000000540081805c0002015d0083815d00cf
:101fa000e00f5200e08f5a00e00f5b00e08f5b0013
:101fb00007003d006044b8006055b8000c00a20066
:101fc0000402540085825c0006035d0087835d0087
:101fd0000c000700e00f5600060032006022b80037
:101fe0006033b8000000520081805a0002015b009b
:101ff00083815b004f0678004f05be004f04be0092
:1020000000000600889fbe008a9fbe008c9fbe0015
:102010000404b8000506b8008904460060854e0037
:102020000606b8000a054600e0854e000706b8001f
:102030008b054600040eb800890446000a854e0050
:10204000e0854d00050eb8000a0546008b854e0060
:10205000060eb8008b0546000416b8000a054600b7
:102060008b854e000516b8008b054600041eb8008f
:102070008b0546000800be000a01be004f06be00e8
:0c2080004f05be004f04be00000006002b
:020000040000fa
:10208c00000000004a900000000000001c0000004e
:10209c007f000000000e0000000700009801000007
:1020ac0000070000a601000000090000b4010000b8
:1020bc0000090000d001000000020000ec0100004b
:1020cc0000030000fa0100000005000008020000f7
:1020dc0000050000160200000006000024020000ab
:1020ec00000800003202000000070000400200005f
:1020fc00000300004e020000000300005c02000020
:10210c00000300006a0200000005000078020000d5
:10211c00000500008602000000030000940200008d
:10212c0000040000a202000000030000b002000046
:10213c0000050000be02000000050000cc020000fb
:10214c0000050000da02000000060000e8020000b2
:10215c0000050000f602000000050000040300006a
:10216c000005000012030000000500002003000021
:10217c00000500002e030000000500003c030000d9
:10218c00000500004a030000000300005803000093
:10219c00000300006603000000050000740300004b
:1021ac000005000082030000000500009003000001
:1021bc00000500009e030000000a0000ac030000b4
:1021cc0000070000c803000000070000d603000051
:1021dc0000060000e403000000070000f20300000a
:1021ec000005000000040000000500000e040000c3
:1021fc00000600001c040000000700002a04000078
:10220c000003000038040000000300004604000036
:10221c0000060000540400000005000062040000e9
:10222c000009000070040000000700008c0400008e
:10223c00000700009a04000000060000a80400003b
:10224c0000070000b604000000060000c4040000f3
:10225c0000050000d204000000060000e0040000ad
:10226c0000070000ee04000000070000fc04000062
:10227c00000900000a050000000700002605000008
:10228c0000070000340500000006000042050000b5
:10229c000003000050050000000500005e05000072
:1022ac00000400006c050000000500007a05000029
:1022bc0000050000880500000004000096050000e1
:1022cc0000050000a405000000060000b205000097
:1022dc0000050000c005000000060000ce0500004f
:1022ec0000050000dc05000000030000ea0500000a
:1022fc0000060000f80500000006000006060000bd
:10230c000003000014060000000300002206000079
:10231c000006000030060000000300003e0600002e
:10232c00000900004c0600000006000068060000d2
:10233c00000600007606000000060000840600007f
:10234c00000600009206000000040000a006000039
:10235c0000040000ae06000000040000bc060000f3
:10236c0000060000ca06000000050000d8060000a8
:10237c0000080000e606000000060000f40600005d
:10238c000005000002070000000500001007000017
:10239c00000400001e070000000300002c070000d2
:1023ac00000500003a070000000500004807000087
:1023bc00000200005607000000000000000c0000a6
:1023cc001c30000060400000603000001c0c00005d
:1023dc000000000000000000006000007018000009
:1023ec000c0400000c1800007060000000000000dd
:1023fc0000000000000000000000000008000000c9
:10240c00080000001c000000360000002200000044
:10241c006300000063000000630000000000000087
:10242c0000000000000000000000000000000000a0
:10243c000000000063000000630000006300000067
:10244c0022000000360000001c0000000800000004
:10245c000800000000000000000000000000000068
:10246c000000000000000000000000000000000060
:10247c000000000000000000000000000000000050
:10248c004040000040400000404000000040000080
:10249c000000000000000000000000005050000090
:1024ac005050000000000000000000000000000080
:1024bc000000000000000000002800003078000040
:1024cc0050780000e0000000000000000000000058
:1024dc000000000000700000b8a000006038000090
:1024ec00a8700000200000000000000000000000a8
:1024fc000066000094980000762a00002a4600002e
:10250c00000000000000000000000000182800007f
:10251c00283e0000f49c00008876000000000000bb
:10252c00000000000000000040400000404000009f
:10253c00000000000000000000000000000000008f
:10254c0000200000204000004040000040400000ff
:10255c00404000002020000000000000004000006f
:10256c00402000002020000020200000202000003f
:10257c0040400000000000000000000020f80000b7
:10258c0070a000000000000000000000000000002f
:10259c00000000000000000000000000002000000f
:1025ac00f8200000200000000000000000000000e7
:1025bc00000000000000000000000000000000000f
:1025cc00004000004040000000000000000000003f
:1025dc00000000000000000000e00000000000000f
:1025ec0000000000000000000000000000000000df
:1025fc00000000000000000000400000000000008f
:10260c000000000000080000101000001020000066
:10261c00202000004040000040800000000000002e
:10262c0000000000006000009090000090900000fe
:10263c00906000000000000000000000000000009e
:10264c0000200000e020000020200000207000008e
:10265c000000000000000000000000000018000056
:10266c0068080000102000004878000000000000fe
:10267c0000000000000000000030000050100000be
:10268c00300800000870000000000000000000008e
:10269c0000000000001000003050000090f8000016
:1026ac0010380000000000000000000000000000d6
:1026bc00003800004040000078080000087000005e
:1026cc0000000000000000000000000000180000e6
:1026dc00204000007050000050200000000000005e
:1026ec000000000000000000007800005010000006
:1026fc00202000002040000000000000000000002e
:10270c000000000000f0000090900000f09000002d
:10271c0090600000000000000000000000000000bd
:10272c0000200000505000005070000020c000003d
:10273c00000000000000000000000000000000008d
:10274c0000400000000000000040000000000000fd
:10275c00000000000000000000000000004000002d
:10276c00000000000040000040400000000000009d
:10277c0000000000000000000018000060c0000015
:10278c003800000000000000000000000000000005
:10279c000000000000000000f8f000000000000045
:1027ac00000000000000000000000000000000001d
:1027bc0000c0000030380000c00000000000000025
:1027cc00000000000000000060900000901000006d
:1027dc00202000002020000000000000000000006d
:1027ec000000000000000000000000001e000000bf
:1027fc00610000009c800000a4800000a480000008
:10280c00a4800000df000000610000003e0000001a
:10281c00000000000000000000000000001000009c
:10282c00303000004878000048cc00000000000068
:10283c00000000000000000000f800004848000004
:10284c007844000044f80000000000000000000084
:10285c0000000000007800008080000080800000f4
:10286c00c870000000000000000000000000000024
:10287c0000f800004c4400004444000048f80000fc
:10288c0000000000000000000000000000f8000044
:10289c00484000007040000048f8000000000000b4
:1028ac00000000000000000000f80000484000009c
:1028bc007040000040e0000000000000000000003c
:1028cc000000000000380000c08000009c88000060
:1028dc0088700000000000000000000000000000f4
:1028ec0000ee0000444400007c44000044ee000074
:1028fc0000000000000000000000000000e00000ec
:10290c00404000004040000040e00000000000009b
:10291c00000000000000000000e00000404000004b
:10292c0040400000404000004080000000000000db
:10293c000000000000ec000050600000605000003f
:10294c0048ec000000000000000000000000000047
:10295c0000e00000404000004040000048f800004b
:10296c00000000000000000000000000000000005b
:10297c0000000000c30000006300000065000000c0
:10298c00550000005900000049000000cb00000079
:10299c00000000000000000000000000000000002b
:1029ac000000000000ce00004464000054540000fd
:1029bc004ce40000000000000000000000000000db
:1029cc0000380000cc84000084840000c870000033
:1029dc0000000000000000000000000000f00000fb
:1029ec00484800007040000040e00000000000007b
:1029fc00000000000000000000380000cc84000043
:102a0c0084840000c870000008060000000000006c
:102a1c000000000000f0000048480000705000006a
:102a2c0050ec00000000000000000000000000005e
:102a3c0000600000604000002010000050600000aa
:102a4c0000000000000000000000000000f8000082
:102a5c00a8200000202000002070000000000000d2
:102a6c00000000000000000000ee000044440000e4
:102a7c004444000044380000000000000000000046
:102a8c000000000000c60000444800002828000098
:102a9c00101000000000000000000000000000000a
:102aac000000000000000000c98000004900000088
:102abc0055000000550000005500000022000000e9
:102acc0022000000000000000000000000000000d8
:102adc00000000000000000000ec00004830000086
:102aec001028000044ee0000000000000000000070
:102afc000000000000c60000282800001010000094
:102b0c001038000000000000000000000000000071
:102b1c0000780000901000002040000048f80000f1
:102b2c0000000000000000000060000040400000b9
:102b3c004040000040400000404000004060000069
:102b4c000000000000800000404000004020000019
:102b5c0020200000101000001008000000000000f1
:102b6c0000e00000202000002020000020200000b9
:102b7c002020000020e00000000000000000000009
:102b8c0020500000505000004800000000000000e1
:102b9c000000000000000000000000000000000029
:102bac0000000000000000000000000000f8000021
:102bbc000000000000000000c04000000000000009
:102bcc0000000000000000000000000000000000f9
:102bdc000000000000000000007000009070000079
:102bec0090f8000000000000000000000000000051
:102bfc00c0400000407000004848000048700000d1
:102c0c0000000000000000000000000000000000b8
:102c1c000070000090800000906000000000000038
:102c2c0000000000000000001808000008780000f8
:102c3c0088880000887c0000000000000000000074
:102c4c0000000000000000000070000090f0000088
:102c5c009060000000000000000000000000000078
:102c6c002040000040e000004040000040e0000038
:102c7c000000000000000000000000000000000048
:102c8c00007c00008888000070400000bc840000bc
:102c9c007800000000000000c04000004058000018
:102cac006848000048fc0000000000000000000024
:102cbc00000000000040000000c000004040000088
:102ccc0040e00000000000000000000000000000d8
:102cdc000040000000c000004040000040400000e8
:102cec00404000008000000000000000c0400000d8
:102cfc00405800006060000050ec00000000000034
:102d0c000000000000000000c04000004040000037
:102d1c004040000040e00000000000000000000007
:102d2c000000000000000000000000000000000097
:102d3c00000000005b000000ed00000049000000f6
:102d4c0049000000ff8000000000000000000000af
:102d5c000000000000000000000000000000000067
:102d6c0000580000e848000048fc0000000000008b
:102d7c0000000000000000000000000000700000d7
:102d8c00888800008870000000000000000000002f
:102d9c00000000000000000000d80000684800009f
:102dac004870000040400000e000000000000000ff
:102dbc00000000000078000088880000887800007f
:102dcc00080800001c0000000000000000000000cb
:102ddc0000d000006040000040e000000000000057
:102dec000000000000000000000000000040000097
:102dfc006020000060600000000000000000000087
:102e0c00000000000040000040f0000040400000c6
:102e1c0040700000000000000000000000000000f6
:102e2c000000000000d8000048480000487c00006a
:102e3c000000000000000000000000000000000086
:102e4c0000c80000505000003020000000000000be
:102e5c0000000000000000000000000000d3000093
:102e6c005a5a00006c6400000000000000000000d2
:102e7c00000000000000000000d8000050200000fe
:102e8c0050d800000000000000000000000000000e
:102e9c000000000000c8000050500000302000006e
:102eac0020200000c0000000000000000000000016
:102ebc0000700000a020000050f000000000000096
:102ecc000000000000100000202000002020000066
:102edc004020000020200000201000000000000016
:102eec000040000040400000404000004040000016
:102efc004040000040400000000000000040000086
:102f0c002020000040400000204000004020000035
:102f1c002040000000000000000000000000000045
:102f2c0000680000b000000000000000000000007d
:102f3c000000000000000000404000004040000085
:102f4c004040000040400000400000000000000035
:102f5c000a0a00003c2000004d650000747200005d
:102f6c006f6e00006f6d0000652000003e000000d9
:102f7c000a0a00003c200000547500006e69000035
:102f8c006e670000204b000069740000203e0000ba
:102f9c00000a00000a3c000020440000727500008a
:102fac006d2000004b690000742000003e00000002
:102fbc000000000054ec00000000000000000000c5
:102fcc000004000001000000000000009403000059
:102fdc00010000000000000064040000010000007b
:102fec00000000007604000001000000000000005a
:102ffc0088040000010000000a0a00003c200000c8
:10300c004d650000747200006f6e00006f6d000063
:10301c00652000003e00000053310000204c0000f1
:10302c006f6e00006700000053320000204c00005f
:10303c006f6e0000670000002564000000000000b7
:020000040000fa
:10304c00d0dfdd00d2d0d100d7d4d50055545600f6
:10305c005150500053535200525d52005d5d52006e
:10306c0052525300535156005755d500d7d6d10064
:10307c00d0d3dc00dfd9d900d8dbdb00dbc5c50041
:10308c00c4c5da00dbd9df00dcd2d300d1d6d40042
:10309c00d555550055555500d5d4d400d7d7d700a4
:1030ac00d7d6d100d1d0d300d2dddc00dfded90001
:1030bc00d9d8d800dbdbdb00dadac500c5c5da000d
:1030cc00dadbd800d9d9de00dcddd200d0d1d100da
:1030dc00d6d7d700d6d1d000d3d2dc00dfd9db00d5
:1030ec00c5c4c600c1c0c300c3c2cd00cdcccd0089
:1030fc00c2c3c300c0c0c100c0c1c100c7c4c500a9
:10310c00dadadb00dbdac500c4c4c700c7c6c60008
:10311c00c6c6c600c7c4c500dbd9dc00d3d1d400f9
:10312c0054565000525d5f005e58450044464100c5
:10313c00434d4c004f4e4900484b4e0042455c00fd
:10314c0055dcc700cccbf500cacec000dbd2d40016
:10315c0057505200525d5d0059464b00726563003a
:10316c0068171000121d1200166c7500f2959c0069
:10317c0085878600879a9d00eaff5c0079606d0068
:10318c006d63610067657b007f764600d2f7fa00bd
:10319c00e6e1e500c8436000171c1900181c170075
:1031ac0078f097009886800080879e00ebcd7b009e
:1031bc00681717006a627a007459d400d9c0c80025
:1031cc00f5f5ca00c9c3df00597363001412190066
:1031dc001b181c001479f400959f850087879a00b2
:1031ec009debf3005a7e64007a73430051ddd800e6
:1031fc00c5d8dc00d654520041736100141d1a006e
:10320c00070704001e144d00ee9a820088b5b50025
:10321c0088839800eed67b00667b4500f5e4e000e1
:10322c00e7fdd800467379007b7b6500676c17005f
:10323c001f0403000c0f0c0000196100e09a8c00b5
:10324c008ab4b5008e869100f4786c00627cdd0047
:10325c00f8e0e700f4406700691515001515170034
:10326c001d040d000a363100313709000479930032
:10327c008db4b600b6b5830090d46a001d1214004c
:10328c007bdcfc00fdd1650014121d0013146b00d7
:10329c00171e03003530320032303400035c8300db
:1032ac00b1bcbe00bfb3b50086ead80041d1fb006b
:1032bc00e897eb00f94e6c00146a670052f4c700f3
:1032cc0063073400323f3d0033360300e3b7be00e2
:1032dc00b9bfb200b18e9c00e6fbe700e4f47700c6
:1032ec001704030003041500f4919d00ed680c0015
:1032fc00303f3c00323037001a85b300b8b9bf00fc
:10330c00bdb2b100b58d8400ea61070009350a0031
:10331c00021f7100e5e1d00014013500303d320090
:10332c003330310035158f00bebabe00bcbfbc00b7
:10333c00b0888500ef7f1800020e0200197495000a
:10334c009f92fe0015013500303d3d0032333000b8
:10335c003560b500bbbabf00bdbcbd00b68e8500e4
:10336c00c004350036351a00f887800098c61c005a
:10337c0002083700333d3d003330370013b5a5004c
:10338c00a5bdb200bcb2b4008d9706003d39330028
:10339c0006968b00b586d9001716160005353d002c
:1033ac003e3d3000310f9f00b9a4be00b3bfbe003c
:1033bc00b0861600363e3d000fd881008f83870003
:1033cc008082850072083c00393c32003d33080095
:1033dc00eebda400b8b2bd00bdb5cb000f303300bc
:1033ec0034168300b3bcb1008f937b0001373c00d3
:1033fc003e3f3d00323236001c88a500a5bcb10012
:10340c00b4850500333e3d000b47b400b8b8bd0091
:10341c00b189c6000a3f3e003c3d3d003d333400bf
:10342c0017b5ba00a5bcb000b5f935003f3c0a0091
:10343c00149ab000bbbbbd00b49e040033393e00ef
:10344c003d3232003231020096b3ba00b8bdb10041
:10345c009a0938003f0cf1008cb1bd00bebeb00023
:10346c00980032003c323c003f323300303578005b
:10347c00b5b9b800bfb38200003b38000c96b7005a
:10348c00b8bbbf00b2b08100063c3c0031303c0000
:10349c003c3233003559b100a5bbb200b79c3500a6
:1034ac003a33da00b7beb800bfb2b000897434004a
:1034bc003231370030323d003c301300b5bbba001e
:1034cc00bcb08d0004383e001f8db300b9b9bd00ef
:1034dc00b08bd900343f320036303e003e323500de
:1034ec0062b5bb00babdb100870f3a003d4fb700c3
:1034fc00bcbfbc00b3b68000163132000a070b000b
:10350c003e3b3d000d93b200babeb0008b41330080
:10351c003a0b8700b2bfbf00bdb08c006c313f00ce
:10352c0031020000313b39000b96bd00a5beb10045
:10353c0089cd36003b369000bdb9bd00b0b18800d6
:10354c0049373d00341a1f00343838000e81bb0057
:10355c00a5bdb400826d32003a358700beb8b2000a
:10356c00b6b786001c3630000f11120034383f00fd
:10357c001eb7a500bbb18e00e80838003d64b10051
:10358c00b8bfb100b59c07003136020011140c0015
:10359c003c38350085bea500bc8be9000e393d00da
:1035ac0046b2a500bfb1b40085013d003c34060015
:1035bc0004353f003e038d00b8a5bd008c60300083
:1035cc003a326000b7babb00bdb49d000033300086
:1035dc0035093400333e330014b7a500bab083006c
:1035ec00163d3b000a87bf00babeb0008e73370091
:1035fc00323501000f3339003f35c000b0a4bb0099
:10360c00b4ec0900383d4a00b2a5b900b088ff00ff
:10361c0009300a001b1c0e003c3b32001f8bba0009
:10362c00a5b19200033f3e0018b4ba00bbb28a00a9
:10363c00f7343c003562d60006323a003f00800079
:10364c00b8a5b200861330003d1db600bab9b30060
:10365c00b78503003e393500101a30003b3d1c0085
:10366c008ababa00b6e708003f307f00b1bab8009a
:10367c00b2b787001b30330009070a003e3b31000c
:10368c004cb0a500b8b5f40035393100efbca5003d
:10369c00b9b3b500e9083c00320a0e00313e3f00d8
:1036ac000af2b300a4b98c00103238000882b800ba
:1036bc00babfb0008af90b0032313400313f3e0002
:1036cc00330c9400bca4bc009e0c3e003f18b5000b
:1036dc00bbbbbc00b08aca00353d300034363f005d
:1036ec003e33000085b9a400b29c0d003f3c68003d
:1036fc00b1bbb900bdb68000600e37003534320066
:10370c00393930001a8fa500a5b6f600353e3700c2
:10371c009dbfba00bfb18d00550c37003734360051
:10372c003d3e3d0037108a00a5a5b400db0b3300ed
:10373c000c86be00babcb1008c530f003131310085
:10374c00333c3c0033371f0089a5a500b45e0a004a
:10375c00300d8400bfbbbf00b18ce800120c3500eb
:10376c00303c39003f3236000680bb00a5b1ee007c
:10377c0000370d0092b3b900bcb48600e715060003
:10378c000a333f003f3d3300300e9100bfa4bd0013
:10379c00851d08000de7b600b9beb3008b9970000b
:1037ac00050f37003d3939003f32370066b1a500af
:1037bc00b88ae300190147008abfbf00b08b8600ae
:1037cc0095771c000f303e00383f3c00320d8400d2
:1037dc00b9a5b3008d9567007b85b100bcb3b7006c
:1037ec008985ca0010013500323939003f3c32005e
:1037fc000c9abe00bab38000eafb93008eb1b00005
:10380c00b6b58200907218000c3432003e393f007d
:10381c003c3302009bbcbb00b38e85009f848900a7
:10382c00b7b7b50089839900fd15070008333e0032
:10383c00383f3c003d347700b4bfbc00b6888f00e5
:10384c008f8bb400b7b58f0084ee5c006616060053
:10385c00343c38003e3c3c003d35670082b6b70036
:10386c00b58ab500b4b7b4008a8c86009e90ea0085
:10387c00f0150d00313f39003e3c3c0032341f0046
:10388c009289b400b7b1b000b1b78a00898c8200bc
:10389c0081849c00fe110f0036323c003c32320019
:1038ac00333035001bec8200b5b7b100b1b1b600b6
:1038bc00b6b7b50088829b00e66018000308370095
:1038cc00303d3c003d3034000214f80092848d00f1
:1038dc008ab6b300b3b1b4008f879200e35b690082
:1038ec001d040300093534000a03180011161600d4
:1038fc006944ec009c858400859b98009b9a9b00f6
:10390c009c91970097ef56006d6b6e006b11130036
:10391c00116878005a545e00487265006160780046
:10392c00d7e6970093929300939292009396e900b6
:10393c00fd5976005ff2e200ece55500676a16006f
:10394c0011111400686d6200626d660077cee100a3
:10395c00e2e4fd00e6979e009a9a99009c94f2008e
:10396c00706d6b006a6a1700121e19001d166b0031
:10397c006c6d6d006073cf00e9929900999c90007a
:10398c00e9f34a006d171100131f0500060107002b
:10399c001b1c1d001d1315007df7ee0091929d0060
:1039ac009291ea00e4da70006d1713001d101400f8
:1039bc006e6d630061616c006f675e00fbea9000e6
:1039cc009c999b009992960094eae300f45e4b005c
:1039dc004f5a5300d7c7f300e5e5cb005053f50021
:1039ec00e0eaea00eee3e700e5fcce00d54e7f000e
:1039fc00666c69006e637f0054ffe000e3e4f20044
:103a0c00f0e4ec00eee3f800f6f4f300f0c54d0042
:103a1c007d7c7c00646d69006d795800c4f4f10004
:103a2c00f1f3fa00e3efee00edfac800dbc6dd00bf
:103a3c004a616f006d606d00151768007a5b560067
:103a4c004544c400e4e89700919191009794940048
:103a5c0094eff900dd4e7e0061691500156f66006c
:103a6c00676166007e5bf500e1efec00e0e295003b
:103a7c009193920092909400ecf9d80040717e00e2
:103a8c0067691700111715006f667100414f4900e7
:103a9c0057f4fb00e1efef00e3e7e700e6e5f300a6
:103aac00c1597e006c141600111717001610100067
:103abc00176f6500734a5c00c2fee000e995950043
:103acc0095eaed00fd5574007e6460006f151600dc
:103adc00111615006b6b68006f617b007246f40069
:103aec00ed959500eae8ef00e0e6e100e6f8cb00a2
:103afc00d44148004c414d0074737f0065616000f7
:103b0c00677243005a49730072755b00d1cff000a5
:103b1c00f1cfc400c7cef400f6f5d8005b717f007e
:103b2c007d70720065626e006b6a6a006e61720075
:103b3c005ec6f200e7ef9700939c9c009291940074
:103b4c00efe7f200cd5072006d1413001c1f1c0027
:103b5c0013146f0061784400f7e3ea00969090002c
:103b6c009694950095e8e300ffde7700616b1700f3
:103b7c0011161400686f6d00607f5500f9eceb00b6
:103b8c00e8eeef00eee8ea009595e900e3f9de00d7
:103b9c0075797b00797c7100777777004e55f4004e
:103bac00fbfbf400d65f5700c4cbf400f1fff00030
:103bbc00d3747f0070475700515b5e00dcf7fc004c
:103bcc00f9e5e100e0e5c800d553d500d4505a0022
:103bdc00427572007c75d100fa949e008584910028
:103bec006c0005004a631b00cd8e8700684b8c006f
:103bfc0080100600ee9a04003003e0006d091a00f4
:103c0c009e986c0013ed9e004c125f0096541c00a5
:103c1c0017c4f40060147800d96411006cc6c50098
:103c2c007244e20096e9fd00e794ea00fff7e70032
:103c3c00fa5d7c00726417001e1a04001b6ce40011
:103c4c00e05fdd009491fa00f29385009457ff0039
:103c5c009397dc005ce7e10046617a0065141d0077
:103c6c00116c680010106900606d670052f0fc0068
:103c7c00e5959f009b989a0087869b009094ea009c
:103c8c00e7dad500d8d77400787a66006b131e007b
:103c9c001805070000030d0002061c0062d0e200ac
:103cac00909b870080828c008d8184009890ee0020
:103cbc00e5fcf900f8f0c000c5c455004a7b6c0067
:103ccc0013070c000a36330032310900076f9600d7
:103cdc008fb4b700b1b3b000b58287009894c2001e
:103cec0047514800654dfd00e4fbe500e4fbf600a0
:103cfc00df5947004f64110006083600333d310090
:103d0c000f10f100858bb600b6b7b5008880920015
:103d1c00ff477f0066617700f4e6f800cbf7f90007
:103d2c00f7d55000d2554c004cd3c5007117040088
:103d3c0009313c003c3230003701fc008089b50071
:103d4c00b7b58e00819fed00cb4678007350c6004e
:103d5c00ffe1f2004167150013176f006265d10097
:103d6c00e7eb960096eec3001702370032323300b1
:103d7c003031340007e580008bb4b5008c879d0092
:103d8c00edc9ca00e5ef91009293930091e17300a5
:103d9c0014121d0012177700e29d8500808d8300a0
:103dac008591e50066063400323c3200303031003b
:103dbc000a119b00b5b7b4008b82810087989f00d5
:103dcc009b87860087859c0094c615001e1a0500eb
:103ddc001915570094848d008e8989008f82870075
:103dec0092e46400050b33003f3e3d003230350059
:103dfc0011988b00b7b7b700b58b89008e8e8e00eb
:103e0c008d83810098e17b001207030002031a00e6
:103e1c0060f99300818f89008e8286009996e40068
:103e2c00d97f1300033432003e3e3c003d33370053
:103e3c001b918900b7b6b700b58e820080818400d3
:103e4c009f929200955715001f0506000104110062
:103e5c0053eb9f00878c8900898c83008799940091
:103e6c00f2761500050f36003d3e3e003f3d330017
:103e7c000b618000b7b1b600b7b58c00879a85008e
:103e8c009994e600f247150005030f000f0d010091
:103e9c001e70940085808d008f8c80009a91ee00ae
:103eac00ff4e6c00161e000035303c003f3d3200ca
:103ebc0033310c00508cb100b3b0b600b58d84001a
:103ecc00999dea00c8496400171a03000f0e0c00f4
:103edc00011e7a0095868e008bb5b5008a8f810005
:103eec0098929400f94a620011050f0037323c0099
:103efc003c3d330036019100b6bdb200b0b68a002d
:103f0c00819d970094ecdb00656c15001f010c0083
:103f1c000d011b0017569d00828bb500b4b58b00ac
:103f2c008c879d0095e0f7004d666b0013040e0026
:103f3c00363d3f003c32300034138100b3bdb3003a
:103f4c00b1b48c00859090009394e700c95664003e
:103f5c00101a04001b116600df9787008c888800fc
:103f6c00888f83008590e900e7fcc8005f6414002b
:103f7c001f010b00303f39003f3d30000ed88a0046
:103f8c00b2b2b100b48980009b929d00999e9600bc
:103f9c00fb716a001d050100071f68004afa9300b7
:103fac00868c8f008d8087009991e900e6fdd80002
:103fbc0074691e00030a31003c3e3f003d32300064
:103fcc000cfc8800b6b7b5008e808500999e9b00ce
:103fdc009890e40043681f000703020003041200da
:103fec0062c1970085868600849a9e009395e800ae
:103ffc00e8eee100ce7a1000070e3700323f3c00ad
:10400c0032303400199bb600b2b0b600b48b8f00be
:10401c008d828d008d819f00e375170018070100bc
:10402c00041f6b005aec9f008783820083879900e2
:10403c009291960097979400eff464001c0335005e
:10404c00333f39003f3237001a93b400b2b3b60095
:10405c00b4888200868484009a90e5007515180057
:10406c00060000000105130078e69c00868d8e008a
:10407c008f8286009a9c91009794eb00e7556c0018
:10408c001e033500303c3e003e3c31000d548d008b
:10409c00b1b3b100b4898200868484008598910004
:1040ac00e2c0780015131c001d176600da95850018
:1040bc008288b500b5888c00808499009296eb00bc
:1040cc00e6c17a0010070e0034303c003e3e3d0045
:1040dc003601f3008db7b600b4888d0081849b0047
:1040ec009f93e800f34c63001118040007041b00b5
:1040fc001d6b4000e3929a0085859e0090edcf00e9
:10410c004a676e0017121900060c350036333d0055
:10411c003c3d3200333035001c968d008f8281007f
:10412c00849992009096e900e5cbde005370630011
:10413c0015101200106b7900cce99d009a8786004f
:10414c00849e9100e9e7ff00fdfcf300c04464008d
:10415c00141906000d0834003631370008076600c4
:10416c0095848000828c8f008e8989008e8d8000d2
:10417c00879a920095e5df00726268006b6f6700aa
:10418c0075d8fa00e99793009d9e99009b9b9b0024
:10419c009b999d0094e6d30067161800010c0b0048
:1041ac00353435000e001e006cde9400848cb50096
:1041bc00b7b6b600b7b48a008f81980095f57a002f
:1041cc00171e050004040500191069007ed5fa00bd
:1041dc00eb909f00989b9e0090e8f30076151900d9
:1041ec00010f35003630330030360a000c046e00f7
:1041fc00f99d86008f888b00898f820087999400a7
:10420c00ff4a6e001318040006060600041a1f006d
:10421c00116b670043cbe100eb97970095ecf20034
:10422c00446210001a010c000835370037350e00b7
:10423c0003051500c39084008d888a008a8b890041
:10424c008c8084009de9f700746d1700131c1e0010
:10425c00191f1000156d7f00d5fde000eb96910045
:10426c0096ebe700db78140019060d0009353400d5
:10427c00373735000f071000409787008fb5b70010
:10428c00b6b6b700b48a8f0080859000e3db7d0062
:10429c006c161d001e191e001c1314006271df0029
:1042ac00e5eb910092929100ebfb520066111a0023
:1042bc00000c080035343500090019006fce900051
:1042cc00868fb500b7b6b600b7b48b008c869f004e
:1042dc00e9cd7e006b131e001b1a1b001e1214006e
:1042ec00614eca00e09492009e9899009c96ec0056
:1042fc00f77114001b000f000a3437003734080024
:10430c00001f6200f19387008d88b500b5b58b0056
:10431c008e8287009f95ff0058676a001613120063
:10432c0012116a006070d200fbe991009d999b000c
:10433c009b999d0096edc60064110500000f0b00c3
:10434c0035343500080318006854ea009a838e004f
:10435c008ab4b400b5b588008c86980096e1db0071
:10436c007160690015156800607d5100f6e1eb0085
:10437c0096939d009d929600e9fad50067111a005c
:10438c00000e35003437360037340b0003186f003d
:10439c00db97840082898a00b4b4b5008b8e8200ce
:1043ac00879cea00fe5964006914160017156f000b
:1043bc006475d500f5fbe000efe8ea00ebefe700f1
:1043cc00f4456100171e0700030c09000b0a0b00d3
:1043dc000e0304001172e50093848200898bb500f2
:1043ec008a8b89008d81850092eef100597d6700e2
:1043fc00636367007c4cd700c8fee100e995970029
:10440c0091919700eae3f10046601600190703004a
:10441c000c090b000a0b0e0002071d0063d7ed0000
:10442c009d85810080808100879b9200eae5d20007
:10443c0073616d006e696e00637a750056c9fe007b
:10444c00e6ec95009691900090969400ecfbd800c9
:10445c00746317001d1a0700010003000006050015
:10446c001d6c5a00e5979900878083008380860035
:10447c008499920094edfb00cadbd000d555d00096
:10448c00c5cafd00e5e1ed00e8949100939390001e
:10449c0097ebe300ffd2700062171c001a040600b1
:1044ac000302030001041900177bc000ed90990072
:1044bc008584840085989c0096eefa00d97661007c
:1044cc006914110010101600156e6000794dd6009d
:1044dc00cbfee600e2e2e300e1e5f700d576610011
:1044ec006a101f001b05040007070500191368005c
:1044fc007cdbe400ea909c009e9899009f929600c9
:10450c00ebe0f600547765006269150014156b003a
:10451c006c617f0043d3f400fbe0ec00e9e9ee00b2
:10452c00e2e4f100d67767006f15160010121c003c
:10453c001c1d130011156d007a41cd00e5edeb004b
:10454c00979193009393910097eaec00e7f0da00cf
:10455c005f757c0078797f007143d400c9f8e00066
:10456c00ee95940097979400ebede500f5d475006b
:10457c00656d6a00171012001c1c1d00121016002d
:10458c00156f66007f495400cdf2e500e6e0e200cd
:10459c00e2e3e600faf2c900d9555f004544580041
:1045ac0050d1db00cef1ff00f8fae500fbfff7007d
:1045bc00c6544d007d6763006c6e6800696e6e00ba
:1045cc006f6c6d0062626000666573004c52d800bf
:1045dc00f1e4e200ee959700969797009494eb0027
:1045ec00ece1fa00f0c1d600535b42004b4b4b00a0
:1045fc00747072007d7f79007f7376007449470078
:10460c005c50560056525a0049717e00656162003a
:10461c006c6c6c00626164007c755800d0c0cb007f
:10462c00f7f0fc00fffcfd00f2f6ca00cdc7df007e
:10463c00d7575700545557005654d700dfc7cc00f6
:10464c00cbf7f000fdfcfe00f8fff000f5cbcd0041
:10465c00ded553005e404b007476710072737600a9
:10466c004a42410041404100445a5f0052515700b8
:10467c00d7d0df00c7caf100fffae400e7e1e3009e
:10468c00e0e1e000e1e6e700e4e5f800fefcf6001e
:10469c00ccdad700584c75007379650064676600f6
:1046ac0066676400657e7300717675004f42470043
:1046bc00585351005455d500d7d0d200d3d2dc007a
:1046cc00d9d8db00dac5da00d8dac700c4dada00e8
:1046dc00dad8df00d2d0d700d4d4d600d3dcd900be
:1046ec00c5c1c000c0c3cd00cdcccf00cccccd005b
:1046fc00c2c0c600c1c0c700dbd8d800ddd1d7000e
:10470c00545f44004d7573007e7a640066616100ed
:10471c00616666006478720075415200d6dbcc008d
:10472c00f4f6f100f7cacd00c5d255005d44430044
:10473c004c49750076717100737c7d00707073004c
:10474c0073717100767671007073730073727300fd
:10475c00717775004f475c00d5dec300f5f0ff00a4
:10476c00fae4e700e7e7e400fafff000f4cfc70053
:10477c00ded0d600d7d5d500d6d2df00d9dac70027
:10478c00c1c1c000c3c0c600c7c7c400c4c4c100f7
:10479c00c2cfcb00f7f0f200fff9fa00e5e4e70036
:1047ac00e7e7e700e7e7e700e4e5f800fefcf200e6
:1047bc00f1f6f600f7f4f400f6f1f000f3f2f30082
:1047cc00f3f0f100f6f7f500c8cecf00ccc2c20072
:1047dc00cdcecb00f5f4f700f1f0f300f0f0f600dd
:1047ec00f4cbcc00c7dfd600565f5a00414d4e00cb
:1047fc00494949004f4f4c004d4d420046585c0012
:10480c005256d200f5f8f900f1f2fc00c0d0cb0002
:10481c00e5e5ff00fbe7fb00f5c3f500f1d843002d
:10482c004f4c7900617a76007d657c00747675005a
:10483c005f587400707265006165730070774e008c
:10484c007576430045754b00594176004e5c43002c
:10485c00755954004375450059494a004e494d005d
:10486c004d77760040407300705b5f004b754500e0
:10487c0051d5560056c6f100cedff700e4fdc60058
:10488c00cafcf100c6d0d300c0c64500775ed30089
:10489c004a647d005a4170007453d3005f46d400c3
:1048ac00db545d00d9c55100d6c2d1005addcb0016
:1048bc00d258d000f7c25200d2f4c900c1f4f100b2
:1048cc00f1f7c200dbc0c100524b400046737900c7
:1048dc0076747d0073747500754d5d00d553520070
:1048ec00d9c1510041d4c400584bd500c5d5560090
:1048fc00d6ddce00ced0db00f7c2d200cdf4f50071
:10490c00f5c8c600dbd8d3005d585200417d780055
:10491c00657b7300717e71005654760071d1c500b1
:10492c004d49c700f4d55b00dbc8d70047d5de0086
:10493c0052415f0057555d0046475f005a4874006e
:10494c004c5844004844d4005f4b4700d0d152002f
:10495c00d6cfcc00d65cd500c7c2d800c4f1f300ca
:10496c00c657d300c0df450044dfdb0044745b0056
:10497c00dd504b0045c4d60071715600547776005b
:10498c00d6c44d007e49d5004c7b73005157740042
:10499c0074dff700d958c500ffcd400053f7ce00a7
:1049ac004544cf00f547710053dd4800787645004b
:1049bc007464640070717a00677976007c647900a5
:1049cc00754f74004b52db00c1c2f400fdfefd00bc
:1049dc00f3ffe500e5f8e500e6e6e500f9f9fc0093
:1049ec00c8d3570052437200656761006916130003
:1049fc0013121f001e10630042c1ec009e8786003c
:104a0c008681800081859f009d90e800e4fef8007f
:104a1c00fefde500ede9ee00ece2e500db70630085
:104a2c0015131800040603000c0e080008090200f8
:104a3c00196dc60090818f0089888b0089839a003c
:104a4c009095e700d441de00fde5e000949f9800ce
:104a5c0099999e0092eece00766e1c000401030024
:104a6c000c080a003534370036363500021b6c0052
:104a7c00e0868e008b8ab500b589870090eef50034
:104a8c00601011006d7e4f00fc90850087878100bf
:104a9c0081849300e2cc640012040100030c090031
:104aac00080b3500343434000b001c0065ec870017
:104abc008e8ab500b7b6b4008e819a0091fe7d0047
:104acc00626770004ed1e10093989a00858485004e
:104adc009c95e700c2706800101d1e001b050500a8
:104aec000407000003020300041d6d00d894850028
:104afc00818d89008a8a89008d819a0097f2400005
:104b0c007e666c006f6671004051cf00fbe7fb00c6
:104b1c00f6f4f500d95f5a00535758004e4a750009
:104b2c0073676c0015111f00050405001b1e130094
:104b3c006b73db00fbe892009b8585009a9b9e00c3
:104b4c0090e9e700fef6d80050d0cb00f1f0fe0063
:104b5c00e1eeeb00eb9594009795eb00ebe8ed00a4
:104b6c00e4f1c100577761006817120019051a00ab
:104b7c00191c120014645d00f5e694009d9e9c00c7
:104b8c0093919400e3f4df00dedadc00dff5fa0049
:104b9c00e1e3ec00eb94940095eaeb00e8ece10027
:104bac00e4fbf300c75f4a007c676f001516130027
:104bbc001f1b05001a191f001d1763007341db0032
:104bcc00e5eeeb00efe2ec00ede5f700f7fefb00a5
:104bdc00fefce500e7e5f200f7f5ce00de505800ec
:104bec0047757d007a7a65006466610060626f00cb
:104bfc006b141100121e1a00040704001a1913007a
:104c0c00687d5300f4e2970093939300939396007e
:104c1c00e9eded00e0e4e500e7e1e600e4e4e700bf
:104c2c00e4f8fe00f8fbfb00f8fbe500e5f8fc00ff
:104c3c00f0f5c700554676007866620069151700d6
:104c4c00146f650075c3ef0091929e0085878400f8
:104c5c009b999c0096edfa00fdc64700425d5f00f3
:104c6c00405ccc00f0f0f800e0e3e100e1e0e600ad
:104c7c00e7e4fb00fdf4c100dd597300646215002c
:104c8c00101f1a0004051e0012147700ffe2940096
:104c9c009f859a00989e9300eff45800796917004d
:104cac00141416001566790073d6fd00f8f8e600aa
:104cbc00e1f8cb00da507000666c1500101f1b0079
:104ccc0007000d000e0b08000c03070016dde000ba
:104cdc00948582008283820081989000e8f77100ad
:104cec00646463006272d200f1e096009c998500c6
:104cfc00848598009f90e900f9d37f006b121a000d
:104d0c00010d0900353734000a0e030012d9ef00eb
:104d1c00928388008bb5b4008b8d81008595f30050
:104d2c00d67d6c006c647e0046f8ea00919e84008f
:104d3c0087848700859e9100e9f170006e13040052
:104d4c00030f0a0037313600350a0d00105efd00e6
:104d5c009c8d8e0088b4b5008e8d80009de7f70089
:104d6c0071161300161212006e7d4c00fc94960006
:104d7c00909e9e009195ec00c6786e001d07020077
:104d8c000935360030303600340b01001473e7005f
:104d9c00848c8e00b5b7b500888980009c97e6009e
:104dac007f696b00131f11006b687e00f4e5e30054
:104dbc009790940095eef1004a60100004000f00eb
:104dcc0035373100303634000a0c1800685c92001c
:104ddc00808d8b00b7b48a008b8f85009dea5800bc
:104dec006c6b1300191d16001761d900ffef9d00a5
:104dfc00999e98009893ea00e1d56300161a00007a
:104e0c000f0b3400340a08000c1b6100d097810092
:104e1c008f88b700b7b5b5008881990090fc650004
:104e2c0062141e001f1013001571d000f2949d0027
:104e3c009d9e9b009c919500f84a6c001207020005
:104e4c0009343700340a0b00021c6000c79c800038
:104e5c008c8ab700b4b5b5008c859c00ee756c00df
:104e6c00151d19001d131100635ff500ef9d9800cf
:104e7c009a87870085989c00eafe5b006e1c0700f1
:104e8c000d0b3500350b080000107a00c89f800010
:104e9c008c8ab400b58a8b0082989000e467170066
:104eac00101805001e12110066d9e40097998500b0
:104ebc00848687009a9f9700fa456c001e010c00af
:104ecc0035363000303634000a00130064e38400b9
:104edc008289b400b7b58a0089879200eb45170028
:104eec00131e0400051c1200154efc00ee9d9a00ca
:104efc00858484009b9d9500fd7015001b030900a3
:104f0c0035363000333137003409050014429c002b
:104f1c008d89b500b1b6b400b58e9a0096e76300e2
:104f2c001212180005136e0060c9900099878c004e
:104f3c008e8f8e008f80870099eed700661d06003d
:104f4c000d0b3700303330003735020069e4900028
:104f5c0082b7b600b1b2b000b7b58c0091f2750053
:104f6c0019000700060019006e65fb009987800088
:104f7c0089888e008e8c86009890f9007c6a1800c7
:104f8c00030e35003132320030370a0006549c00d3
:104f9c0087b5b300b3b0b200b3b78a0081eec100dd
:104fac0060010c0001000d0019677100e08586009e
:104fbc0080898900828381009decf000661f0400cb
:104fcc0002353600303d3f003c3336003404e100fe
:104fdc008483b700bdb2b000b3b1b5008e9360004e
:104fec00141e0e000b0001000017c900e59d820085
:104ffc008c8fb500b58e8c0082859600eed517008f
:10500c0018000b0037303d003e3d36000a03c4004b
:10501c0082898b00b3bcb300b6b78b008d99680046
:10502c0006050000340b070006047d00e4f89d0023
:10503c00808181008f8f860087849500dc7f120031
:10504c00030b3700323f3f003f3d3000340f7f00f1
:10505c008fb48800b7bcb200b7b5830099907e00be
:10506c0002021b000d0b0400111a1200d9f1f500fd
:10507c009c81860080898f0087849c00d4161b003d
:10508c000f3132003d3f3f00323037000a01e8005b
:10509c00b7b68900b4b3b600888c9e00fcff6500df
:1050ac000704120004031a0012181000d7ec930026
:1050bc0083b5b400b4b6b4008d84960070180300a8
:1050cc0035303c003c3c3d0030350f0007feb50050
:1050dc00b78c8800b1b48f008f86e800efe16800d0
:1050ec0019101f0001001800131750009d818f002c
:1050fc00b4b1b600b48a820092f56f00050f34008b
:10510c00303d3f003c3237000f06600083b0b500e5
:10511c008db7b0008b8c8f0084eee200f7141a0070
:10512c001a0503000204170066fd85008f8bb4007e
:10513c00b7b48e008693cd0014070f0034333f00b4
:10514c003f3c3000340e00005f8e8a009884b4001f
:10515c008b848600829ff600db4d1d00020d030040
:10516c000e0b00001160c400998c8e008f8f8d0087
:10517c0085eeda00611802000b3632003d33360042
:10518c00350f0400f28d8c009c87b5008a838c004f
:10519c00888d9e00eafb65001b010100030d0600d3
:1051ac001457ec0099828e008d81860099e74d0092
:1051bc00671202000a3633003337000019149600c8
:1051cc008f81ee00988b8b008c8bb700b78f84008f
:1051dc009ce41400040707000607130075f6e300af
:1051ec009c8499009694e2005e6f16001e030a00e0
:1051fc0037313500076a6100f89a9d0056ce990048
:10520c00868780008eb58f0099eaef005f1d1a002b
:10521c00116a1200137ffa00e7f9e000eccb63008f
:10522c0011131f00010e0b003437080014e1e100cc
:10523c0097818700f25099008c8c83008eb4890082
:10524c009ce6ed00f96615007df7c1005de5930065
:10525c009f91e800e2f06000180600000e37300065
:10526c0030351a0044e596008687e3005c968d0085
:10527c00888e8e00b58a8500f4464a001405050018
:10528c0011696c004fec92009f939500e1d86c0073
:10529c001e060d003536340004cfec00f7ee9f00ef
:1052ac00e7111700978e8b008c88b600b49afc001f
:1052bc00e7ebd700101c6e006614160064cfc40018
:1052cc00611610001c070c000a350a0007f4850053
:1052dc00849a8400916319006e91800080868c0002
:1052ec008b829500f5ef9100e475d500ef94ed00fd
:1052fc00e4edef00d316040003093700333d310011
:10530c0001e7860081828e0081f16800cc868900dd
:10531c0082868d008984450010687e001518120065
:10532c0040ee9500e89098009dcd1600070f3700d1
:10533c0032300600968d8d008c8a8c00eb64fc005c
:10534c0083b588008d88b7008a9bf500dcff480088
:10535c001f0412007f42650065447c001f0f37005c
:10536c00323c32000b6485008c898b008d90480098
:10537c0077968000838781008d839300d77dd4003e
:10538c00d865140062d9e700e4fae400c36a0000af
:10539c0034333d003106ef00838c8900888d9d00ed
:1053ac00f7e485008d80850085868400eb7c6a009f
:1053bc00686a1200191f1700607c6500151a0c0032
:1053cc0037323c003605eb0082b5b700b6b4880026
:1053dc008381810081879a009c97ed00ca726b00d3
:1053ec00131e18001e1d11006a636000151b0c00b3
:1053fc00373136000f1c4900e691980085858400f2
:10540c008680800086849a00999d960095949700da
:10541c00ebe0f20055641400121c1b00060c350066
:10542c003736360034080d0006127100ee9a8200f1
:10543c0088b5b700b1b1b600b58e80009b94f8006a
:10544c00567a15001c0400000c08340031323c0064
:10545c003231340009066a00e1848e00b4b6b00023
:10546c00b2b2b300b1b489008192f9007b10040090
:10547c0000020d000c090a003731330033363500b9
:10548c000e061700fa858e00b6b2bc00bcbdb20089
:10549c00b3b0b4008c9aeb00581604000d080a0047
:1054ac0035353400373032003d323100340e0700d0
:1054bc0069e286008ab1b200bcbfbc00bdb2b300c9
:1054cc00b0b78e008790f8007811050001020e002d
:1054dc000b34310033323000370a020013f18500ef
:1054ec0088b1b200bcbdb200b3b0b000b1b78e0091
:1054fc0084ee4600151b00000d0f080034363300f7
:10550c003d3c3d0030360b000114ff00858eb4008d
:10551c00b6b3b200bdb3b100b48980009ee1730094
:10552c00161b0100020c0900353633003c3f3c00d1
:10553c003d333600091fc2009b8eb700b3bdbf00c0
:10554c00bfbcb300b68b860097441300010e350028
:10555c0034373700363033003232330030313400d8
:10556c000c1dcb009b8fb700b3bcbe00bebfbc00f4
:10557c00b2b18b008190c2006b1b01000c0935008d
:10558c00373133003d3d3300303036000b047200b0
:10559c009382b400b3bfbe00bebfbc00b2b68e00d7
:1055ac009ae366001b0309000a34340037363600d0
:1055bc0031313100370b00001d439d008cb4b3001a
:1055cc00bcbebe00bfbcbc00b2b0b50080915600e2
:1055dc00170503000f0b3500353436003131300020
:1055ec00313409000111c5009c82b500b1b2bc0078
:1055fc00bfbcb200b68a800093c315000502090037
:10560c00353737003636310036363700350803006b
:10561c001e60fa009e8db500b1b3bd00bcbcb200db
:10562c00b68b800093c71400070c0a003437360081
:10563c003636360037343500080c06001c67f90086
:10564c0093868e00b4b6b000b0b0b100b4888000c0
:10565c009ce564001d060c0008353400373434001a
:10566c0034350b000e0d01001a106400f096850005
:10567c008389b500b4b7b400b58882008596fe0066
:10568c007c161b0006030d000c0f0c000c02000016
:10569c00071b12006b655900f1ec91009f9a840076
:1056ac00878484009a9f9600e3f15000786e140072
:1056bc00161111001714680060657a007b704f009a
:1056cc004450c400f7f2f800e4e1e200edede20032
:1056dc00e0e7fc00c3d65c0049737d0070737d006d
:1056ec0071425200d1dace00f4f1f000f0f6f6007f
:1056fc00f3fdff00fefbe400e1e2e300e1e1e70083
:10570c00f8f6ce00c5d65700d5d6d100deccf400c5
:10571c00f5f5f400f4f5f700f0f0f700f4f0ff0005
:10572c00f8fae400e1e2e200efeb970096969100c4
:10573c00939d9c009c9c9c009c9c9c009d93910028
:10574c0097e8e300e6e4fc00c8c6c600c6c1ce007c
:10575c00f6fce500e6e1e100e3e3e600e4e7e60061
:10576c00e6e7e500fbfcf400c6dfd0005459470027
:10577c0047414f004a4e4d004f4e420046424800b2
:10578c004a48750074757500767748004c4f430095
:10579c00454447005a5c510057535900444d74001e
:1057ac00737c790065646500787f720071744c00bd
:1057bc0041474100414147005a5a4400404f75004f
:1057cc0076707000767774004a435f0054d3d9002a
:1057dc00dac6cf00f4f1f000f2fdf300f7cbcd0008
:1057ec00c5d255005258400075727f00797b7b0002
:1057fc007e7d7300774d5b0050d3c100f5f3f8004c
:10580c00e4e7e100e0e3e300e3e0e000e1e6e400ec
:10581c00f8fcf300f7cedb00d7565c004174730044
:10582c007e7a6400676666006464650078724a007c
:10583c004d415a005357d500d0dec500c1cef500fe
:10584c00f7f4c900c6dd5100454c7400707370004c
:10585c007675460051ddcc00ffe1ef00ea9497002d
:10586c0096969400eaeee300e4f0c5005041740013
:10587c0072797b007b7a7b007e704b004651de0098
:10588c00cdcbf700f2fae600e7fbe500e2e8eb002f
:10589c00edfef500f0cc75006478740048744c0093
:1058ac00dccac600c5f3f900f5c6f700fff7de0049
:1058bc00c6fcf900f4f7fa00e6e5fa00e7e7fe00ab
:1058cc00f3fefe00ced0d5005d746400626e150050
:1058dc00161012001c1f1e001f1c120010161500a3
:1058ec00696d60006479720075484b0075717d00bc
:1058fc007f797a006567660061606c0069686b008f
:10590c0014161100146b6a00686449004942dd00ea
:10591c00ceccf600fff3f300fafbcb00c2f1c500ce
:10592c007676d300577d7700d75f7300775f45009d
:10593c00704fc600ceddf100ede2f900e7eee700b6
:10594c00c4f0e600da70d700c4656300747f6e00a3
:10595c00614b7e00667555004c4bce00fcdcc000e4
:10596c00e0e7f700e1e8e100e7e9ef00e1e3ed0053
:10597c00e6f0c400517662006a151400101317008b
:10598c0015156e007c50db00e5979d009c9b8700f5
:10599c0087848400859f9100e8f9450060171f00fb
:1059ac000507010000000100041f140067cf9700d9
:1059bc0098878d00898e8e008e8284009891f200db
:1059cc00766c1d00040603000c0f0f0009090d0076
:1059dc000105160075ec9a00828bb700b1b1b600c8
:1059ec00b48882008594d00063120700020f0b006c
:1059fc003434370037373500080d05006ff39e003f
:105a0c008d8ab700b1b0b100b6b58f00819fe500ab
:105a1c007f171a00000d0e000b3534003737370096
:105a2c0034350c00056af7009f82b500b6b0b300a0
:105a3c00b3b1b4008f849700c06f1f0007020e0033
:105a4c000a3537003736310036340b0003125d004f
:105a5c009382b500b0bdbf00bfbcbd00b0b78f0016
:105a6c0099f87b0012010c000935360031303300f7
:105a7c00303137000a031300f9868a00b1bcb90033
:105a8c00bfbcbc00bdb0b400829ddd0013060d0090
:105a9c000b373600303333003030300031370900eb
:105aac001fe5840088b0bc00bcbfbe00bfbdb10008
